:100000000C9446000C9458000C9458000C94580022
:100010000C9458000C9458000C9458000C94580000
:100020000C9458000C9458000C9458000C945800F0
:100030000C9458000C9458000C9458000C945800E0
:100040000C9458000C9458000C945A000C945800CE
:100050000C9458000C9458000C9458000C945800C0
:100060000C9458000C9458000C9458000C945800B0
:100070000C9458000C9458000C9458000C945800A0
:100080000C9458000C9458000C94580011241FBE76
:10009000CFEFD0E1DEBFCDBF21E0A0E0B1E001C0F5
:1000A0001D92A230B207E1F70E9476000C94C400C2
:1000B0000C9400001F920F920FB60F9211248F9391
:1000C0008CB18A3011F08D3059F41092010181E029
:1000D000809300018F910F900FBE0F901F90189585
:1000E000809101018F5F80930101F4CF1092900005
:1000F0008FEC89B9599A8AB188618AB98091950043
:100100008660809395008FEF8ABB87E69FE727E2A2
:100110003DE74DE656E66FE47BE5A6E0BFE35F9B77
:10012000FECFECB15D9BFECFECB9E053EA30B8F7FF
:10013000F0E0E356FF4F0C94BB00A700A900AB0012
:10014000AD00AF00B100B300B500B700B900BBBB54
:10015000E6CFABBBE4CF7BBBE2CF6BBBE0CF5BBBFF
:10016000DECF4BBBDCCF3BBBDACF2BBBD8CF9BBBAF
:10017000D6CF8BBBD4CFEE0FFF1F0024001C0BBECD
:0C0180000790F691E02D0994F894FFCF51
:00000001FF
