:100000000C9446000C9450000C9450000C9450003A
:100010000C9450000C9450000C9450000C94500020
:100020000C9450000C9450000C9450000C94500010
:100030000C9450000C9450000C9450000C94500000
:100040000C9450000C9450000C9450000C945000F0
:100050000C9450000C9450000C9450000C945000E0
:100060000C9450000C9450000C9450000C945000D0
:100070000C9450000C9450000C9450000C945000C0
:100080000C9450000C9450000C94500011241FBE8E
:10009000CFEFD0E1DEBFCDBF0E945A000C947800B4
:1000A0000C9400005F9BFECF8CB190E008959BB153
:1000B0008CB90895109290008FEC89B9599A8AB141
:1000C00088618AB9809195008660809395008FEF52
:1000D00081BBDFEF0E945200C82F082E000C990B45
:1000E0000E945700C13611F4D2BBF4CF12BAF2CF3E
:0400F000F894FFCFB2
:00000001FF
